S00E00007465747269732E737265637B
S11300000C942A000C9447000C9447000C9447006D
S11300100C9447000C9447000C9447000C94470040
S11300200C9447000C9447000C9447000C948711DF
S11300300C9447000C9447000C9447000C94470020
S11300400C9447000C9447000C9447000C94470010
S11300500C94470011241FBECFE5D8E0DEBFCDBF0E
S113006024E0A4E6B0E001C01D92A637B207E1F790
S113007010E0A0E6B0E0EAE5F6E202C005900D92D9
S1130080A436B107D9F70E943E120C942B130C949A
S1130090000080916400909165000895909365003C
S11300A080936400089590936F0480936E04089580
S11300B08091660090916700089590936700809303
S11300C066000895002496958795079496958795DC
S11300D00794982F802D680F791FFB01EE0FFF1FE7
S11300E0E859FF4F518340830895002496958795DE
S11300F00794969587950794982F802D680F791FFC
S1130100FB01EE0FFF1FE859FF4F80819181089595
S1130110EF92FF920F931F93CF93DF93EC018B0128
S11301209C01992314F4295F3F4F35952795359504
S1130130279535952795E22EF32EB801822F932F1C
S11301400E9475009E0127703078332334F42150C7
S11301503109286F3F6F2F5F3F4F61E070E0AB01C3
S113016002C0440F551F2A95E2F79A01AC01422BB5
S1130170532BB8018E2D9F2D0E946200DF91CF91E9
S11301801F910F91FF90EF900895EF92FF920F93BC
S11301901F93CF93DF93EC018B019C01992314F4FB
S11301A0295F3F4F359527953595279535952795A3
S11301B0E22EF32EB801822F932F0E947500AC011A
S11301C09E0127703078332334F421503109286F8D
S11301D03F6F2F5F3F4F81E090E0BC0102C0660F8C
S11301E0771F2A95E2F79B012095309542235323EC
S11301F0B8018E2D9F2D0E946200DF91CF911F9137
S11302000F91FF90EF900895EF92FF920F931F9339
S1130210CF93DF938B01141615066CF4C82FD92FD6
S11302207E01E40EF51EB801CE010E9488002196DD
S1130230CE15DF05C1F7DF91CF911F910F91FF908C
S1130240EF900895EF92FF920F931F93CF93DF9354
S11302508B01141615066CF4C82FD92F7E01E40EF9
S1130260F51EB801CE010E94C5002196CE15DF050A
S1130270C1F7DF91CF911F910F91FF90EF900895F7
S1130280EF92FF920F931F93CF93DF9300E010E060
S1130290E12CF12C19C0BE01C8010E94C500BE01A9
S11302A06F5F7F4FC8010E94C500BE016E5F7F4F24
S11302B0C8010E94C5002396CC33D10561F70F5FB6
S11302C01F4F0034110511F0E701E5CFDF91CF9105
S11302D01F910F91FF90EF900895EF92FF920F936B
S11302E01F93CF93DF9300E010E00F2EFCE0EF2E7E
S11302F0F12CF02D19C0BE01C8010E948800BE0176
S11303006F5F7F4FC8010E948800BE016E5F7F4F00
S1130310C8010E9488002396CC33D10561F70F5F92
S11303201F4F0034110511F0E701E5CFDF91CF91A4
S11303301F910F91FF90EF900895EF92FF920F930A
S11303401F93CF93DF938B01141615066CF4C82FFB
S1130350D92F7E01E40EF51EB801CE010E94C5001E
S11303602196CE15DF05C1F7DF91CF911F910F9133
S1130370FF90EF900895EF92FF920F931F93CF9306
S1130380DF937C018B01C0E0D0E0BE01600F711FE0
S11303904CE050E0C7010E9404012196C330D1050E
S11303A0A1F7DF91CF911F910F91FF90EF900895E6
S11303B0EF92FF920F931F93CF93DF937C018B01F6
S11303C0C0E0D0E0BE01600F711F4CE050E0C701F7
S11303D00E949D012196C330D105A1F7DF91CF91F1
S11303E01F910F91FF90EF900895EF92FF920F935A
S11303F01F93CF93DF937C018B01C0E0D0E0BE015B
S1130400600F711F43E050E0C7010E940401219670
S1130410CC30D105A1F7DF91CF911F910F91FF90BF
S1130420EF900895EF92FF920F931F93CF93DF9372
S11304307C018B01C0E0D0E0BE01600F711F43E07E
S113044050E0C7010E949D012196CC30D105A1F74F
S1130450DF91CF911F910F91FF90EF900895EF924C
S1130460FF920F931F93CF93DF937C018B01C0E026
S1130470D0E0BE01600F711F46E050E0C7010E944A
S113048004012196C630D105A1F7DF91CF911F91C8
S11304900F91FF90EF900895EF92FF920F931F93A7
S11304A0CF93DF937C018B01C0E0D0E0BE01600FED
S11304B0711F46E050E0C7010E949D012196C6309D
S11304C0D105A1F7DF91CF911F910F91FF90EF908C
S11304D00895AF92BF92CF92DF92EF92FF920F9363
S11304E01F93CF93DF937C01A62EB72E00E010E07C
S11304F06C0183E0C80ED11CCA2DDB2DB8016C0F32
S11305007D1F43E050E0C6010E9404010F5F1F4FAE
S11305100930110589F703E010E0B8016C0F7D1F65
S113052043E050E0C7010E9404010F5F1F4F0630F3
S1130530110599F7DF91CF911F910F91FF90EF90E3
S1130540DF90CF90BF90AF900895AF92BF92CF92BB
S1130550DF92EF92FF920F931F93CF93DF937C016F
S1130560A62EB72E00E010E06C0183E0C80ED11C6B
S1130570CA2DDB2DB8016C0F7D1F43E050E0C6018E
S11305800E949D010F5F1F4F0930110589F703E099
S113059010E0B8016C0F7D1F43E050E0C7010E94DA
S11305A09D010F5F1F4F0630110599F7DF91CF9121
S11305B01F910F91FF90EF90DF90CF90BF90AF907D
S11305C00895CF92DF92EF92FF920F931F93CF93F0
S11305D0DF937C01C62ED72E00E010E0CC2DDD2D5C
S11305E0B8016C0F7D1F43E050E0C7010E94040175
S11305F00F5F1F4F0330110589F703E010E0B801C6
S11306006C0F7D1F49E050E0C7010E9404010F5F99
S11306101F4F0630110599F7DF91CF911F910F916C
S1130620FF90EF90DF90CF900895CF92DF92EF92FA
S1130630FF920F931F93CF93DF937C01C62ED72E87
S113064000E010E0CC2DDD2DB8016C0F7D1F43E0E0
S113065050E0C7010E949D010F5F1F4F0330110539
S113066089F703E010E0B8016C0F7D1F49E050E00A
S1130670C7010E949D010F5F1F4F0630110599F7B6
S1130680DF91CF911F910F91FF90EF90DF90CF906A
S11306900895CF92DF92EF92FF920F931F93CF931F
S11306A0DF938C01C62FD72F6E0183E0C80ED11CB7
S11306B0780183E0E80EF11C49E050E0BE01C80176
S11306C00E940401BE016D5F7F4F43E050E0C7010B
S11306D00E9404012196CC15DD0571F7DF91CF91BD
S11306E01F910F91FF90EF90DF90CF900895CF92DC
S11306F0DF92EF92FF920F931F93CF93DF938C01BE
S1130700C62FD72F6E0183E0C80ED11C780183E079
S1130710E80EF11C49E050E0BE01C8010E949D01B1
S1130720BE016D5F7F4F43E050E0C7010E949D0111
S11307302196CC15DD0571F7DF91CF911F910F91B3
S1130740FF90EF90DF90CF900895AF92BF92CF9239
S1130750DF92EF92FF920F931F93CF93DF937C016D
S1130760A62EB72E00E010E06C0183E0C80ED11C69
S1130770CA2DDB2DB8016C0F7D1F43E050E0C6018C
S11307800E9404010F5F1F4F0630110589F706E030
S113079010E0B8016C0F7D1F46E050E0C7010E94D5
S11307A004010F5F1F4F0930110599F7DF91CF91B5
S11307B01F910F91FF90EF90DF90CF90BF90AF907B
S11307C00895AF92BF92CF92DF92EF92FF920F9370
S11307D01F93CF93DF937C01A62EB72E00E010E089
S11307E06C0183E0C80ED11CCA2DDB2DB8016C0F3F
S11307F07D1F43E050E0C6010E949D010F5F1F4F23
S11308000630110589F706E010E0B8016C0F7D1F72
S113081046E050E0C7010E949D010F5F1F4F093061
S1130820110599F7DF91CF911F910F91FF90EF90F0
S1130830DF90CF90BF90AF9008956115710599F046
S1130840ACF020E030E041E050E0FA01E89FA00184
S1130850E99F500DF89F500D11242F5F3F4F26172D
S1130860370799F705C041E050E002C041E050E08D
S1130870842F952F0895CF93DF93EC0182E090E0CD
S11308800E941D049C012C233D23822F932FDF9172
S1130890CF910895CF93DF93EC01DD230CF40796F9
S11308A09595879595958795959587950E9475005B
S11308B0BE0167707078772334F461507109686FF2
S11308C07F6F6F5F7F4F0E943B04DF91CF9108954C
S11308D0CF92DF92EF92FF920F931F93CF93DF9308
S11308E08C017B01CCE0D0E06C2F7D2FC8010E94ED
S11308F04A04892B11F16C2F7D2FC7010E948800B7
S11309006C2F7D2FC8010E94C5006E018FEFC81A9D
S1130910D80AB601C7010E948800B601C8010E9426
S1130920C5006E0182E0C80ED11CB601C7010E9449
S11309308800B601C8010E94C5002396CC33D105B6
S113094099F6DF91CF911F910F91FF90EF90DF9077
S1130950CF900895CF92DF92EF92FF920F931F935F
S1130960CF93DF938C01CCE0D0E0EE24E394F12C20
S1130970C12CD12CBE01C8010E944A04892B09F064
S113098076012396CC33D105A9F78E2D9F2DDF91C7
S1130990CF911F910F91FF90EF90DF90CF9008952A
S11309A00F931F93CF93DF93EC012196CD33D105A1
S11309B06CF403E610E0CE010E94AA04892B09F02E
S11309C08E012196CD33D105B1F702C003E610E0C4
S11309D0802F912FDF91CF911F910F910895CF9286
S11309E0DF92EF92FF920F931F93CF93DF938C01CB
S11309F0CCE0D0E0EE24E394F12CC12CD12CBE0148
S1130A00C8010E944A04892B09F476012396CC3349
S1130A10D105A9F78E2D9F2DDF91CF911F910F91B5
S1130A20FF90EF90DF90CF900895CF92DF92EF92F6
S1130A30FF920F931F93CF93DF938C01181619061F
S1130A4094F4C0E0D0E0E12CF12CCC24C394D12C5C
S1130A50CE010E94EF04892B09F076012196C0177C
S1130A60D107B1F702C0E12CF12C8E2D9F2DDF911F
S1130A70CF911F910F91FF90EF90DF90CF90089549
S1130A80EF92FF920F931F93CF93DF9300E010E058
S1130A900F2EFCE0EF2EF12CF02DC8010E94EF0484
S1130AA0892BD1F00E94490001960E944E00E70173
S1130AB0BE01C8010E94C500BE016F5F7F4FC8011F
S1130AC00E94C500BE016E5F7F4FC8010E94C50031
S1130AD02396CC33D10561F70F5F1F4F0C331105FB
S1130AE0E1F6DF91CF911F910F91FF90EF90089560
S1130AF0CF93DF930E944005CBE3D0E0CE010E9468
S1130B00AA04892B51F4CE010E94D00483369105A6
S1130B1021F0BC01CE010E946804219778F7DF918F
S1130B20CF9108958F929F92AF92BF92CF92DF920E
S1130B30EF92FF920F931F93CF93DF9380917204F0
S1130B40909173040097B9F48091740490917504A2
S1130B508033910509F416C160916A0470916B04A5
S1130B600C960E944A04C1E0D0E0892B09F030C100
S1130B70C0E0D0E02DC18130910519F58091740455
S1130B80909175048633910509F4FFC000916A04BD
S1130B9010916B04EC012796B801CE010E944A041F
S1130BA0892B09F0F5C0B8016D5F7F4FCE010E941B
S1130BB04A04C1E0D0E0892B09F00AC1C0E0D0E0CA
S1130BC007C18230910561F5809174049091750498
S1130BD08633910509F4DFC000916A0410916B0417
S1130BE0EC012696B801CE010E944A04892B09F033
S1130BF0D5C0B8016D5F7F4FCE010E944A04892B96
S1130C0009F0CFC0B8016A5F7F4FCE010E944A0449
S1130C10C1E0D0E0892B09F0DBC0C0E0D0E0D8C04F
S1130C208330910519F5C0917404D0917504C333D0
S1130C30D10509F4B9C000916A0410916B04B8019C
S1130C40CE0103960E944A04892B09F0B0C0B80172
S1130C506D5F7F4FCE0109960E944A04C1E0D0E047
S1130C60892B09F0B5C0C0E0D0E0B2C08430910552
S1130C7081F5E0907404F090750489E3E816F104BA
S1130C8009F498C0C0906A04D0906B0400E010E0AE
S1130C90C0E0D0E083E0E80EF11CAA24A394B12CB8
S1130CA099249394812CB8016C0D7D1DC7010E9479
S1130CB04A04892B39F4892DCD2B09F4882DC82FAA
S1130CC0D0E001C0E5010D5F1F4F0C30110559F74D
S1130CD07FC08530910519F5C0917404D0917504D5
S1130CE0C333D10509F469C000916A0410916B04FF
S1130CF0B801CE0109960E944A04892B09F060C00C
S1130D00B8016D5F7F4FCE0106960E944A04C1E090
S1130D10D0E0892B09F05CC0C0E0D0E059C0069750
S1130D2009F051C0E0907404F090750486E3E8166D
S1130D30F10409F44BC0C0906A04D0906B0400E045
S1130D4010E0C0E0D0E086E0E80EF11CAA24A394F1
S1130D50B12C99249394812CB8016C0D7D1DC7018D
S1130D600E944A04892B39F4892DCD2B09F4882D4E
S1130D70C82FD0E001C0E5010D5F1F4F09301105F8
S1130D8059F726C0C1E0D0E023C0C1E0D0E020C0C4
S1130D90C1E0D0E01DC0C1E0D0E01AC0C1E0D0E0A5
S1130DA017C0C1E0D0E014C0C1E0D0E011C0C1E080
S1130DB0D0E00EC0C1E0D0E00BC0C1E0D0E008C07C
S1130DC0C1E0D0E005C0C0E0D0E002C0C1E0D0E0A6
S1130DD081E0CD2B09F080E090E0DF91CF911F916D
S1130DE00F91FF90EF90DF90CF90BF90AF909F90C6
S1130DF08F90089580917204909173040097D1F4B8
S1130E0060916A0470916B048091740490917504EC
S1130E100E94D80180917404909175040396909374
S1130E2075048093740460916A0470916B040E9449
S1130E30BB01089581309105D1F460916A047091E9
S1130E406B0480917404909175040E944C0280910B
S1130E5074049091750403969093750480937404BC
S1130E6060916A0470916B040E942F02089582308D
S1130E709105D1F460916A0470916B0480917404BB
S1130E80909175040E94A502809174049091750458
S1130E900396909375048093740460916A0470912E
S1130EA06B040E946902089583309105D1F4609126
S1130EB06A0470916B0480917404909175040E948B
S1130EC015038091740490917504039690937504AE
S1130ED08093740460916A0470916B040E94E1022F
S1130EE0089584309105D1F460916A0470916B0483
S1130EF080917404909175040E941202809174048C
S1130F009091750403969093750480937404609192
S1130F106A0470916B040E94F5010895853091056F
S1130F20D1F460916A0470916B048091740490917F
S1130F3075040E947703809174049091750403965C
S1130F40909375048093740460916A0470916B04A7
S1130F500E94490308950697C9F460916A04709148
S1130F606B0480917404909175040E94E103809154
S1130F70740490917504039690937504809374049B
S1130F8060916A0470916B040E94A5030895CF9246
S1130F90DF92EF92FF920F931F93CF93DF93809191
S1130FA0720490917304009711F500916A041091F2
S1130FB06B04C0917404D09175042396B8016D5FDD
S1130FC07F4FCE010E944A047C01B8016A5F7F4FC3
S1130FD0CE010E944A04E82AF92AB8016350710933
S1130FE0CE010E944A049701282B392B92C08230EB
S1130FF0910579F460916A0470916B046D5F7F4F81
S1131000809174049091750406960E944A049C0190
S113101080C08330910509F500916A0410916B0436
S1131020780186E0E80EF11CC0917404D091750437
S1131030B701CE010E944A046C012396B701CE0188
S11310400E944A047C01EC28FD28B801CE010E94CC
S11310504A049701282B392B5CC08430910501F593
S113106000916A0410916B040D5F1F4FC0917404CA
S1131070D0917504B801CE0103960E944A047C0104
S1131080B801CE0106960E944A04E82AF92AB8015A
S1131090CE0103970E944A049701282B392B39C0AB
S11310A08530910579F460916A0470916B04635002
S11310B07109809174049091750403960E944A0406
S11310C09C0127C0069719F500916A0410916B04DE
S11310D0C0917404D09175047E0183E0E81AF1088C
S11310E0B801C7010E944A046C010D5F1F4FB8018B
S11310F0C7010E944A047C01EC28FD28B801CE01F6
S113110006960E944A049701282B392B02C020E03E
S113111030E0822F932FDF91CF911F910F91FF9099
S1131120EF90DF90CF9008958091720490917304B2
S1131130009731F560916A0470916B048091740496
S1131140909175040E94D80184E090E09093730418
S11311508093720480917404909175040396909323
S113116075048093740460916A0470916B046350F5
S1131170710970936B0460936A040E94F5010895E9
S11311808230910509F560916A0470916B04809135
S11311907404909175040E94A50285E090E09093F8
S11311A073048093720460916A0470916B046D5FA0
S11311B07F4F70936B0460936A04809174049091E0
S11311C075040E944903089583309105D9F4609110
S11311D06A0470916B0480917404909175040E9468
S11311E0150386E090E090937304809372046091F9
S11311F06A0470916B0480917404909175040E9448
S1131200A50308958430910521F560916A047091D5
S11312106B0480917404909175040E9412021092E0
S1131220730410927204809174049091750403976E
S1131230909375048093740460916A0470916B04B4
S11312406D5F7F4F70936B0460936A040E94BB01CF
S113125008958530910509F560916A0470916B04D5
S113126080917404909175040E94770382E090E069
S1131270909373048093720460916A0470916B0478
S11312806350710970936B0460936A0480917404D1
S1131290909175040E94690208950697D1F46091B3
S11312A06A0470916B0480917404909175040E9497
S11312B0E10383E090E0909373048093720460915F
S11312C06A0470916B0480917404909175040E9477
S11312D0E10208950E94C707892B11F40E94940823
S11312E008950E946D0180E090E00E945D0080E01E
S11312F090E00E944E0008958F929F92AF92BF9209
S1131300CF92DF92EF92FF920F931F93CF93DF93CD
S11313108091720490917304009751F5C0906A040F
S1131320D0906B04E0907404F0907504A12CB12C5F
S113133080E090E0C1E0D0E000E010E0892B79F497
S1131340B601C5018E0D9F1D0E944A043C2F2D2F0E
S1131350892B11F4302F212F832F922F01C0CE011E
S113136023E0A20EB11C2CE0A216B10439F71EC171
S11313708130910579F5C0916A04D0916B04009194
S1131380740410917504BE01C8010E944A04892B9B
S113139009F00EC17E0183E0E80EF11CB701C8011B
S11313A00E944A04892B09F003C10D5F1F4FBE013F
S11313B0C8010E944A04892B09F0FAC0B701C80188
S11313C00E944A0421E030E0892B11F420E030E04F
S11313D0C901ECC08230910509F520916A0430916D
S11313E06B04C0917404D091750489010D5F1F4F83
S11313F0B9016A5F7F4FCE0103960E944A04892B8C
S113140009F0D6C0B801CE010E944A0421E030E0C0
S1131410892B11F420E030E0C901C8C08330910564
S1131420F1F400916A0410916B04C0917404D0919A
S11314307504B8016D5F7F4FCE0106960E944A0481
S1131440892B09F0B5C0B801CE010E944A0421E0FD
S113145030E0892B11F420E030E0C901A7C08430CA
S1131460910551F5E0906A04F0906B0400917404C6
S113147010917504A12CB12C80E090E0C1E0D0E083
S1131480C12CD12C892B79F4B701C501800F911F90
S11314900E944A043C2F2D2F892B11F43C2D2D2D15
S11314A0832F922F01C0CE0123E0A20EB11C2CE0A9
S11314B0A216B10439F77AC085309105C1F5E090E0
S11314C06A04F0906B04A0907404B0907504C0E0BA
S11314D0D0E020E030E001E010E0C12CD12C232B3F
S11314E079F4B701CE018A0D9B1D0E944A04502F46
S11314F0412F892B11F45C2D4D2D252F342F01C044
S113150098012396C930D10551F7232B09F050C017
S1131510B7016D5F7F4FC50103960E944A0421E025
S113152030E0892B11F420E030E0C9013FC0069778
S113153009F040C000916A0410916B04A0907404F7
S1131540B0907504650183E0C80ED11C812C912CE8
S113155080E090E0C1E0D0E0E12CF12C892B79F41B
S1131560B401600F711FC6010E944A043C2F2D2F45
S1131570892B11F43E2D2F2D832F922F01C0CE01E4
S113158023E0820E911C29E08216910439F7892BFD
S113159079F4B8016A5F7F4FC5010E944A0421E0D3
S11315A030E0892B11F420E030E0C901019711F4F7
S11315B00E947109DF91CF911F910F91FF90EF90DD
S11315C0DF90CF90BF90AF909F908F9008950E942E
S11315D0BE1267E070E00E944512282F392F8093D5
S11315E072049093730421153105B9F410927504B3
S11315F01092740481E290E090936B0480936A04E7
S11316000E947C0960916A0470916B048091740457
S1131610909175040E94BB01089521303105B9F4FD
S1131620109275041092740481E290E090936B041C
S113163080936A040E947C0960916A0470916B042F
S113164080917404909175040E942F0208952230B1
S11316503105B9F4109275041092740481E290E09B
S113166090936B0480936A040E947C0960916A04DD
S113167070916B0480917404909175040E946902C6
S1131680089523303105B9F410927504109274044E
S113169081E290E090936B0480936A040E947C0939
S11316A060916A0470916B04809174049091750444
S11316B00E94E102089524303105B9F410927504B2
S11316C0109274048EE190E090936B0480936A040A
S11316D00E947C0960916A0470916B048091740487
S11316E0909175040E94F501089525303105B9F4EF
S11316F0109275041092740481E290E090936B044C
S113170080936A040E947C0960916A0470916B045E
S113171080917404909175040E94490308952630C1
S11317203105B1F4109275041092740481E290E0D2
S113173090936B0480936A040E947C0960916A040C
S113174070916B0480917404909175040E94A503B8
S113175008950E949205892B19F00E94FA060895B3
S11317608CE390E00E941505892B11F00E94780506
S11317700E94E70A0895AF92BF92CF92DF92EF9250
S1131780FF920F931F93CF93DF93809172049091F4
S11317907304009791F5E0906A04F0906B0489E378
S11317A0E816F10409F414C1C0907404D0907504CF
S11317B0A12CB12C20E030E0C1E0D0E083E0E80EC1
S11317C0F11C00E010E0232B79F4B701C5018C0D66
S11317D09D1D0E944A045C2F4D2F892B11F4502F1C
S11317E0412F252F342F01C09E0183E0A80EB11C88
S11317F08CE0A816B10439F717C18130910519F5A9
S113180060916A0470916B046633710509F4E3C056
S11318108B010A5F1F4FC0917404D0917504B80105
S1131820CE010E944A04892B09F0D8C0B801CE0128
S113183003960E944A0421E030E0892B09F0F4C0A9
S113184020E030E0F1C08230910521F5C0916A04B6
S1131850D0916B04C333D10509F4C3C0009174045F
S113186010917504BE01675F7F4FC80103960E9403
S11318704A04892B09F0B8C0BE016A5F7F4FC801D2
S11318800E944A0421E030E0892B09F0CDC020E019
S113189030E0CAC08330910559F560916A047091B3
S11318A06B046633710509F4A2C08B010A5F1F4FF4
S11318B0C0917404D0917504B801CE010E944A0409
S11318C0892B09F097C0B801CE0103960E944A04FF
S11318D0892B09F092C0B801CE0106960E944A04F1
S11318E021E030E0892B09F09FC020E030E09CC06B
S11318F084309105C1F460916A0470916B04603383
S1131900710509F47DC0645F7F4F809174049091E8
S113191075040E944A0421E030E0892B09F084C058
S113192020E030E081C08530910571F5C0916A04F2
S1131930D0916B04C633D10509F465C07E0183E000
S1131940E80EF11C0091740410917504B701C801EC
S11319500E944A04892B09F059C0BE016A5F7F4F77
S1131960C80103960E944A04892B09F052C0B701AA
S1131970C80106960E944A0421E030E0892B09F050
S113198053C020E030E050C0069709F045C0609194
S11319906A0470916B046333710509F440C08B01D0
S11319A0075F1F4FC0917404D0917504B801CE0134
S11319B00E944A04892BB1F5B801CE0103960E9416
S11319C04A0421E030E0892B79F520E030E02CC096
S11319D021E030E029C021E030E026C021E030E001
S11319E023C021E030E020C021E030E01DC021E030
S11319F030E01AC021E030E017C021E030E014C02C
S1131A0021E030E011C021E030E00EC021E030E000
S1131A100BC021E030E008C020E030E005C021E048
S1131A2030E002C021E030E081E0232B09F080E0C7
S1131A3090E0DF91CF911F910F91FF90EF90DF9095
S1131A40CF90BF90AF9008958091720490917304E9
S1131A500097D9F460916A0470916B0480917404C6
S1131A60909175040E94D80160916A0470916B048E
S1131A706D5F7F4F70936B0460936A04809174046C
S1131A80909175040E94BB01089581309105D9F4A9
S1131A9060916A0470916B04809174049091750450
S1131AA00E944C0260916A0470916B046D5F7F4FD9
S1131AB070936B0460936A0480917404909175042C
S1131AC00E942F02089582309105D9F460916A042E
S1131AD070916B0480917404909175040E94A50226
S1131AE060916A0470916B046D5F7F4F70936B0417
S1131AF060936A0480917404909175040E94690251
S1131B00089583309105D9F460916A0470916B044F
S1131B1080917404909175040E94150360916A0485
S1131B2070916B046D5F7F4F70936B0460936A04D4
S1131B3080917404909175040E94E10208958430A8
S1131B409105D9F460916A0470916B0480917404D6
S1131B50909175040E94120260916A0470916B0462
S1131B606D5F7F4F70936B0460936A04809174047B
S1131B70909175040E94F501089585309105D9F47A
S1131B8060916A0470916B0480917404909175045F
S1131B900E94770360916A0470916B046D5F7F4FBC
S1131BA070936B0460936A0480917404909175043B
S1131BB00E94490308950697D1F460916A047091D4
S1131BC06B0480917404909175040E94E103609108
S1131BD06A0470916B046D5F7F4F70936B04609324
S1131BE06A0480917404909175040E94A503089579
S1131BF00E94BB0B892B11F00E94240D0895AF9213
S1131C00BF92CF92DF92EF92FF920F931F93CF93E5
S1131C10DF9300916A0410916B040115110509F416
S1131C20F2C08091720490917304009731F5A090F2
S1131C307404B0907504C0E0D0E020E030E0EE24FD
S1131C40E394F12C01501109C12CD12C232B79F4EC
S1131C50B801CE018A0D9B1D0E944A045E2D4F2DB2
S1131C60892B11F45C2D4D2D252F342F01C09701A4
S1131C702396CC30D10551F7D7C081309105D1F4EA
S1131C8001501109C0917404D0917504B801CE01BA
S1131C900E944A04892B09F0B9C0B801CE01039609
S1131CA00E944A0421E030E0892B09F0BDC020E005
S1131CB030E0BAC082309105E1F4C0917404D0914F
S1131CC07504B8016E5F7F4FCE010E944A04892BD0
S1131CD009F09FC0B80161507109CE0103960E94BA
S1131CE04A0421E030E0892B09F09EC020E030E076
S1131CF09BC08330910571F5C0917404D091750433
S1131D00780182E0E80EF11CB701CE0103960E942F
S1131D104A04892B69F4B701CE0106960E944A044D
S1131D2021E030E0892B11F420E030E0790103C098
S1131D30EE24E394F12CB80161507109CE010E94A4
S1131D404A04892B09F068C021E0EF2809F420E057
S1131D5030E06AC08430910589F4B801615071099A
S1131D6080917404909175040E944A0421E030E04B
S1131D70892B09F059C020E030E056C08530910528
S1131D8031F5A0907404B0907504C0E0D0E020E078
S1131D9030E0EE24E394F12C01501109C12CD12C34
S1131DA0232B79F4B801CE018A0D9B1D0E944A04AD
S1131DB05E2D4F2D892B11F45C2D4D2D252F342FA5
S1131DC001C097012396C930D10551F72DC006975C
S1131DD031F5C0917404D0917504B8016B5F7F4FE5
S1131DE0CE010E944A04892BE9F4B80161507109BB
S1131DF0CE0103960E944A0421E030E0892BA1F42D
S1131E0020E030E011C021E030E00EC021E030E0FD
S1131E100BC021E030E008C021E030E005C020E044
S1131E2030E002C021E030E081E0232B09F080E0C3
S1131E3090E0DF91CF911F910F91FF90EF90DF9091
S1131E40CF90BF90AF9008958091720490917304E5
S1131E500097D9F460916A0470916B0480917404C2
S1131E60909175040E94D80160916A0470916B048A
S1131E706350710970936B0460936A0480917404D5
S1131E80909175040E94BB01089581309105D9F4A5
S1131E9060916A0470916B0480917404909175044C
S1131EA00E944C0260916A0470916B046350710942
S1131EB070936B0460936A04809174049091750428
S1131EC00E942F02089582309105D9F460916A042A
S1131ED070916B0480917404909175040E94A50222
S1131EE060916A0470916B046350710970936B0480
S1131EF060936A0480917404909175040E9469024D
S1131F00089583309105D9F460916A0470916B044B
S1131F1080917404909175040E94150360916A0481
S1131F2070916B046350710970936B0460936A043D
S1131F3080917404909175040E94E10208958430A4
S1131F409105D9F460916A0470916B0480917404D2
S1131F50909175040E94120260916A0470916B045E
S1131F606350710970936B0460936A0480917404E4
S1131F70909175040E94F501089585309105D9F476
S1131F8060916A0470916B0480917404909175045B
S1131F900E94770360916A0470916B046350710925
S1131FA070936B0460936A04809174049091750437
S1131FB00E94490308950697D1F460916A047091D0
S1131FC06B0480917404909175040E94E103609104
S1131FD06A0470916B046350710970936B0460938D
S1131FE06A0480917404909175040E94A503089575
S1131FF00E94FF0D892B11F00E94240F0895DA9A94
S1132000DB980895969A00C000C0969800C000C05E
S11320100895C09ADB98DA9885BB0E94021008954F
S1132020CF93C82F0E94FF0FC5BB0E940210CF910F
S11320300895C09AC1980895CF93C82F88230CF4AB
S1132040C0E0603408F060E06093700410927104A2
S1132050C0936804109269048C2F90E00E941910B8
S11320608C2F80640E94091080917004886B0E94F8
S11320700910CF91089588540E94091080E40E94A9
S113208009100895CF93DF931092690410926804A5
S1132090109271041092700480E40E94091088EB7D
S11320A00E940910C0E0D4E0809168049091690412
S11320B08038910579F41092690410926804809133
S11320C0700490917104019690937104809370044C
S11320D00E943B1080916804909169040E94191039
S11320E00E94FF0F15BA0E9402108091680490911B
S11320F06904019690936904809368042197A1F67A
S11321001092690410926804109271041092700481
S113211080E40E94091088EB0E940910DF91CF919E
S1132120089502C00E94A90B0E949205892BD1F741
S113213085E090E090936D0480936C04089584B3DB
S11321408FEF84BB8AB38C608ABB87B3836087BB01
S113215081B3806C81BB15BA12BA1BBA18BA979AAC
S11321608EE30E94091080EC0E9409108FE30E9404
S113217009100E94421080E090E00E944E0080E02E
S113218090E00E945D0080E090E00E94530008957A
S113219087B38F7087BB8AB38F738ABB80EE82BF8D
S11321A081E083BF89BF78940895CF93DF9340E49F
S11321B050E06CE370E080E090E00E94040140E4B1
S11321C050E06BE070E080E090E00E940401C0E029
S11321D0D0E040E450E0BE0180E090E00E942201A3
S11321E02196CB30D105A9F7C0E0D0E06DE370E0D3
S11321F0CE010E9488002A96CC33D105B9F7C7E0F6
S1132200D0E0BE018CE390E00E948800BE018DE323
S113221090E00E948800BE018EE390E00E94880056
S1132220BE018FE390E00E9488002196C034D1055E
S113223041F7DF91CF9108954CE350E06EE370E0F5
S113224080E090E00E9422014CE350E06FE370E0F4
S113225080E090E00E9422010E944900853B9105A4
S11322607CF463E070E00E9445129B01AB016FE3D4
S113227070E08CE390E0821B930B0E9404010895AC
S11322808B369140D4F440E450E06FE370E080E09A
S113229090E00E9404010E94490063E070E00E9403
S11322A045129B01AB01405451096EE370E084E098
S11322B090E0821B930B0E9404010895EF92FF9219
S11322C00F931F93CF93DF9300E010E0E12CF12CE8
S11322D013C0602F8C2F0E941C10BE01C8010E94E5
S11322E075000E9410102196C034D10591F70F5F3C
S11322F01F4F0830110511F0E701EBCF0E941C11AC
S1132300DF91CF911F910F91FF90EF9008951F924D
S11323100F920FB60F9211242F933F934F935F9315
S11323206F937F938F939F93AF93BF93CF93DF93D9
S1132330EF93FF932FE986E891E02150804090408D
S1132340E1F700C000000E945800892B49F08091F9
S11323506C0490916D04019690936D0480936C04C9
S1132360C9B3D6B367E070E08D2F90E00E943B04C0
S1132370892B39F00E945800892B79F10E94F80FBB
S11323802CC065E070E08D2F90E00E943B04892B07
S113239039F00E945800892B01F10E94F80D1DC0EC
S11323A066E070E08D2F90E00E943B04892B39F0A9
S11323B00E945800892B89F00E9491100EC064E09D
S11323C070E08D2F90E00E943B04892B31F00E9435
S11323D05800892B11F00E946A0967E070E08C2F85
S11323E090E00E943B04892B79F00E9440010E94F6
S11323F0D5100E94E70A81E090E00E945D0080E031
S113240090E00E944E0019C066E070E08C2F90E0CE
S11324100E943B04892B29F080E090E00E945D003B
S11324200CC065E070E08C2F90E00E943B04892B87
S113243021F081E090E00E945D0080916C04909115
S11324406D04059731F40E94A90B10926D0410924B
S11324506C040E945E11FF91EF91DF91CF91BF91C7
S1132460AF919F918F917F916F915F914F913F9128
S11324702F910F900FBE0F901F9018950E949F10E0
S11324800E94D5100E94C810FFCF97FB072E16F4A8
S1132490009407D077FD09D00E94591207FC05D09B
S11324A03EF4909581959F4F0895709561957F4F67
S11324B00895AA1BBB1B51E107C0AA1FBB1FA61787
S11324C0B70710F0A61BB70B881F991F5A95A9F7D9
S11324D080959095BC01CD0108958F929F92AF9203
S11324E0BF92CF92DF92EF92FF92CF93DF93EC01F2
S11324F0688179818A819B816115710581059105C6
S113250021F464E279ED8BE597E02DE133EF41E0CE
S113251050E00E94CE1249015A019B01AC01A7EA86
S1132520B1E40E94EA126B017C01ACEEB4EFA501A8
S113253094010E94F812C60ED71EE81EF91EF7FE7B
S113254006C081E0C81AD108E10880E8F80AC88208
S1132550D982EA82FB82E894D7F8EE24FF24C601EC
S1132560DF91CF91FF90EF90DF90CF90BF90AF902D
S11325709F908F9008950E946D12089580E690E0D8
S11325800E946D120895A0E0B0E0809360009093E3
S11325906100A0936200B09363000895052E97FB39
S11325A016F4009407D057FD0DD00E94FD1207FCCD
S11325B009D07EF490958095709561957F4F8F4FEB
S11325C09F4F089550954095309521953F4F4F4F1B
S11325D05F4F08950E941F13A59F900DB49F900D07
S11325E0A49F800D911D11240895B7FF0C94EA1245
S11325F00E94EA12821B930B0895A1E21A2EAA1BD1
S1132600BB1BFD010DC0AA1FBB1FEE1FFF1FA2179E
S1132610B307E407F50720F0A21BB30BE40BF50B9B
S1132620661F771F881F991F1A9469F76095709524
S1132630809590959B01AC01BD01CF010895A29FA7
S1132640B001B39FC001A39F01D0B29F700D811D43
S10D26501124911D0895F894FFCFA2
S107265A0100000077
S9030000FC
